:020000040800F2
:10000000002800206D1A0008091900080F190008BF
:10001000151900081B19000821190008000000002C
:100020000000000000000000000000002719000888
:1000300033190008000000003F1900084B190008A0
:10004000B51A0008B51A0008B51A0008B51A000854
:10005000B51A0008B51A0008B51A0008B51A000844
:10006000B51A0008B51A0008B51A0008B51A000834
:10007000B51A0008B51A0008B51A0008B51A000824
:10008000B51A0008B51A0008B51A0008B51A000814
:10009000B51A0008B51A0008B51A0008B51A000804
:1000A000B51A0008B51A0008B51A0008B51A0008F4
:1000B00059190008B51A000800000000B51A000818
:1000C000B51A00080000000000000000B51A000882
:1000D00000000000B51A0008B51A00080000000072
:1000E000B51A0008B51A0008B51A0008000000008B
:1000F0000000000000000000000000000000000000
:0C01000000000000000000005FF808F1A3
:1001100010B5054C237833B9044B13B10448AFF341
:1001200000800123237010BD3C000020000000006F
:10013000FC30000808B5034B1BB103490348AFF37B
:10014000008008BD0000000040000020FC300008D6
:1001500070B54FF0FF0C4CF4E06C1CEA11541DBF5D
:100160001CEA135594EA0C0F95EA0C0F00F0DEF828
:100170002C4481EA030621EA4C5123EA4C5350EA0D
:10018000013518BF52EA033541F4801143F480135E
:1001900038D0A0FB02CE4FF00005E1FB02E506F0EF
:1001A0000042E0FB03E54FF00006E1FB03569CF044
:1001B000000F18BF4EF0010EA4F1FF04B6F5007F4A
:1001C00064F5407404D25FEA4E0E6D4146EB0606BC
:1001D00042EAC62141EA55514FEAC52040EA5E5045
:1001E0004FEACE2EB4F1FD0C88BFBCF5E06F1ED8EF
:1001F000BEF1004F08BF5FEA500E50F1000041EB26
:10020000045170BD06F0004646EA010140EA0200D2
:1002100081EA0301B4EB5C04C2BFD4EB0C0541EAF4
:10022000045170BD41F480114FF0000E013C00F309
:10023000AB8014F1360FDEBF002001F0004170BD2D
:10024000C4F10004203C35DA0C341BDC04F1140446
:10025000C4F1200500FA05F320FA04F001FA05F2D2
:1002600040EA020001F0004221F0004110EBD3709F
:1002700021FA04F642EB06015EEA430E08BF20EACB
:10028000D37070BDC4F10C04C4F1200500FA04F36E
:1002900020FA05F001FA04F240EA020001F0004100
:1002A00010EBD37041F100015EEA430E08BF20EA73
:1002B000D37070BDC4F1200500FA05F24EEA020EBB
:1002C00020FA04F301FA05F243EA020321FA04F0EA
:1002D00001F0004121FA04F220EA020000EBD370A1
:1002E0005EEA430E08BF20EAD37070BD94F0000FA1
:1002F0000FD101F00046400041EB010111F4801FD5
:1003000008BF013CF7D041EA060195F0000F18BF85
:10031000704703F00046520043EB030313F4801FC1
:1003200008BF013DF7D043EA0603704794EA0C0F7B
:100330000CEA135518BF95EA0C0F0CD050EA410691
:1003400018BF52EA4306D1D181EA030101F000410E
:100350004FF0000070BD50EA410606BF1046194636
:1003600052EA430619D094EA0C0F02D150EA013642
:1003700013D195EA0C0F05D152EA03361CBF104683
:1003800019460AD181EA030101F0004141F0FE4122
:1003900041F470014FF0000070BD41F0FE4141F4A6
:1003A000780170BD81F0004102E000BF83F000439E
:1003B00030B54FEA41044FEA430594EA050F08BF00
:1003C00090EA020F1FBF54EA000C55EA020C7FEAC4
:1003D000645C7FEA655C00F0E2804FEA5454D4EB41
:1003E0005555B8BF6D420CDD2C4480EA020281EA0B
:1003F000030382EA000083EA010180EA020281EA43
:100400000303362D88BF30BD11F0004F4FEA013194
:100410004FF4801C4CEA113102D0404261EB4101A3
:1004200013F0004F4FEA03334CEA133302D0524229
:1004300063EB430394EA050F00F0A780A4F10104E5
:10044000D5F1200E0DDB02FA0EFC22FA05F280181F
:1004500041F1000103FA0EF2801843FA05F3594105
:100460000EE0A5F120050EF1200E012A03FA0EFC84
:1004700028BF4CF0020C43FA05F3C01851EBE371AE
:1004800001F0004507D54FF0000EDCF1000C7EEBCB
:1004900000006EEB0101B1F5801F1BD3B1F5001F09
:1004A0000CD349085FEA30004FEA3C0C04F1010428
:1004B0004FEA445212F5800F80F09A80BCF1004F51
:1004C00008BF5FEA500C50F1000041EB045141EAD3
:1004D000050130BD5FEA4C0C404141EB0101013C9C
:1004E00028BFB1F5801FE9D291F0000F04BF01468B
:1004F0000020B1FA81F308BF2033A3F10B03B3F15D
:1005000020020CDA0C3208DD02F1140CC2F10C02EC
:1005100001FA0CF021FA02F10CE002F11402D8BF4A
:10052000C2F1200C01FA02F120FA0CFCDCBF41EA16
:100530000C019040E41AA2BF01EB0451294330BDE5
:100540006FEA04041F3C1CDA0C340EDC04F11404C2
:10055000C4F1200220FA04F001FA02F340EA030099
:1005600021FA04F345EA030130BDC4F10C04C4F1DF
:10057000200220FA02F001FA04F340EA03002946BF
:1005800030BD21FA04F0294630BD94F0000F83F409
:10059000801306BF81F480110134013D4EE77FEAEC
:1005A000645C18BF7FEA655C29D094EA050F08BF38
:1005B00090EA020F05D054EA000C04BF1946104619
:1005C00030BD91EA030F1EBF0021002030BD5FEA5D
:1005D000545C05D14000494128BF41F0004130BD85
:1005E00014F580043CBF01F5801130BD01F00045D9
:1005F00045F0FE4141F470014FF0000030BD7FEA4C
:10060000645C1ABF194610467FEA655C1CBF0B4646
:10061000024650EA013406BF52EA033591EA030F5D
:1006200041F4002130BD00BF90F0000F04BF002155
:10063000704730B54FF4806404F132044FF0000588
:100640004FF0000150E700BF90F0000F04BF002101
:10065000704730B54FF4806404F1320410F0004567
:1006600048BF40424FF000013EE700BF42004FEA62
:10067000E2014FEA31014FEA02701FBF12F07F43DF
:1006800093F07F4F81F06051704732F07F4208BF96
:10069000704793F07F4F04BF41F40021704730B59D
:1006A0004FF4607401F0004521F000411CE700BFE9
:1006B00050EA010208BF704730B54FF000050AE06C
:1006C00050EA010208BF704730B511F0004502D56D
:1006D000404261EB41014FF4806404F132045FEA6F
:1006E000915C3FF4D8AE4FF003025FEADC0C18BF18
:1006F00003325FEADC0C18BF033202EBDC02C2F10A
:10070000200300FA03FC20FA02F001FA03FE40EA9B
:100710000E0021FA02F11444BDE600BF4A0011D2D6
:1007200012F5001211D20DD56FF47873B3EB62524B
:100730000ED44FEAC12343F0004343EA505323FA57
:1007400002F070474FF00000704750EA013002D1CC
:100750004FF0FF3070474FF00000704780B483B017
:1007600000AF00237B6041E02A4A7B685B011344B1
:100770000C3301221A60274A7B685B0113440C3357
:100780001A6824497B685B010B4408331A60214ACC
:100790007B685B01134408331A681E497B685B0160
:1007A0000B4404331A601B4A7B685B011344043317
:1007B0001A6818497B685B010B441A60154A7B680C
:1007C0005B011344143300221A60124A7B685B01F8
:1007D0001344103300221A600E4A7B685B011344F5
:1007E000183300221A607B6801337B607B68022B20
:1007F000BADD084B80229A83064B4FF480729A87A9
:10080000044B4FF40072A3F85C2000BF0C37BD46C8
:1008100080BC70476800002080B582B000AF002324
:100820007B60B8E0604A7B685B01134404331A685C
:100830005D497B685B010B441A605B4A7B685B0126
:10084000134408331A6858497B685B010B4404332E
:100850001A60554A7B685B0113441C331B88194698
:10086000524801F013FC034619464F4A7B685B016E
:100870001344083319604C4A7B685B0113441A68BF
:1008800049497B685B010B4404331B689A427FD162
:10089000454A7B685B01134404331A6842497B680C
:1008A0005B010B4408331B689A4271D13E4A7B6856
:1008B0005B0113440C331A683B497B685B010B44B2
:1008C00008331B689A4238D0374A7B685B0113446F
:1008D00008331A6834497B685B010B440C331A6097
:1008E000314A7B685B01134408331B68002B0ED12F
:1008F0002D4A7B685B011344103301221A602A4A97
:100900007B685B011344183305221A6040E0264AD5
:100910007B685B011344103300221A60224A7B6813
:100920005B011344143300221A601F4A7B685B0189
:100930001344183305221A602AE01B4A7B685B01C6
:10094000134418331B685A1E17497B685B010B441C
:1009500018331A60144A7B685B01134418331B6810
:10096000002B15D1104A7B685B01134408331B68C8
:10097000002B06D10C4A7B685B011344143301221F
:100980001A60094A7B685B011344183305221A6018
:100990007B6801337B607B68022B7FF643AF00BF2F
:1009A00000BF0837BD4680BD680000200008014038
:1009B00080B483B000AF78600B4A7B685B0113445E
:1009C00010331B68012B08D1074A7B685B01134475
:1009D000103300221A60012300E0002318460C3770
:1009E000BD4680BC704700BF6800002080B483B063
:1009F00000AF78600B4A7B685B01134414331B68BB
:100A0000012B08D1074A7B685B0113441433002291
:100A10001A60012300E0002318460C37BD4680BC55
:100A2000704700BF6800002080B500AF0D4B00226A
:100A30001A700D4B1B6801330C4A13600C4B1B687A
:100A400001330C4A1360002300220121002000F032
:100A50001BFE002301220021012000F015FE00BF33
:100A600080BD00BFC9000020080000200000002059
:100A70000C0000200400002080B500AF012000F031
:100A8000D5FF0346002B00F094804B4B1B68013BC5
:100A9000494A1360494B1B68013B484A1360484B65
:100AA0001B68032B71D801A252F823F0BD0A00087D
:100AB000ED0A0008250B0008550B00083F4B1B688A
:100AC000002B64DC3F4B1B683C4A13600023002270
:100AD0000121002000F0D8FD012300220021012087
:100AE00000F0D2FD364B01221A6050E0334B1B68F8
:100AF000002B4EDC344B1B682F4A1360334B1B68B2
:100B00002E4A1360002301220021002000F0BCFDCA
:100B1000002300220121012000F0B6FD284B022213
:100B20001A6036E0244B1B68002B34DC254B1B6815
:100B3000214A1360012300220021002000F0A4FDBF
:100B4000002300220121012000F09EFD1C4B032206
:100B50001A6020E0184B1B68002B16DC1B4B1B682F
:100B6000154A1360184B1B68144A136000230022B7
:100B70000121002000F088FD002301220021012036
:100B800000F082FD0E4B00221A6000BF04E000BF9F
:100B900002E000BF00E000BF074B1B68074A126875
:100BA0001146184600F034FD4FF47A71012000F030
:100BB000E3FE00BF80BD00BF000000200400002055
:100BC00058000020100000200C0000200800002029
:100BD00080B500AF324B1B78032B51D801A252F8DD
:100BE00023F000BF0F0C0008350C00085B0C000858
:100BF000F50B0008002300220021002000F044FD36
:100C0000002300220021012000F03EFD45E00023EA
:100C100000220121002000F037FD002300220121E5
:100C2000012000F031FD1F4B1B680221184600F027
:100C3000EFFC32E0012300220021002000F024FD1F
:100C4000012300220021012000F01EFD164B1B682D
:100C50000321184600F0DCFC1FE0002301220021E4
:100C6000002000F011FD002301220021012000F0EE
:100C70000BFD0E4B1B680421184600F0C9FC0CE06C
:100C8000002300220021002000F0FEFC00230022AF
:100C90000021012000F0F8FC00BF00BF80BD00BFB4
:100CA000C800002014000020180000201C000020B4
:100CB00080B500AF032000F0B9FE0346002B3DD005
:100CC0001F4B1B78022B24D0022B31DC002B02D0CF
:100CD000012B0FD02CE008211A4801F006FA402120
:100CE000184801F002FA184B1B680221184600F060
:100CF0008FFC1EE00421134801F0F7F92021114870
:100D000001F0F3F9114B1B680321184600F080FC39
:100D10000FE002210B4801F0E8F91021094801F029
:100D2000E4F90B4B1B680421184600F071FC00E04D
:100D300000BF4FF4FA71032000F01EFE00BF80BD1B
:100D4000C800002000080140140000201800002006
:100D50001C00002080B483B000AF78607B68002B5B
:100D600002D10E4B03221A707B68022B03D10B4B6E
:100D700000221A700CE07B68032B03D1074B012281
:100D80001A7005E07B68042B02D1044B02221A7012
:100D900000BF0C37BD4680BC704700BFC8000020B4
:100DA00080B500AF002000F041FE0346002B05D0C7
:100DB00000F0BAFC3221002000F0DEFD914B1B78E0
:100DC000042B00F21D8101A252F823F0E10D00086E
:100DD000090E0008930E00081B0F0008C90F000839
:100DE00000F07CFAFFF748FE0020FFF7E1FD034624
:100DF000002B00F0FC80834B01221A700220FFF7C9
:100E0000A9FFFFF7E5FEF2E0FFF752FF0120FFF731
:100E1000EDFD0346002B0CD07B4B1B6801337A4A57
:100E20001360794B1B68632B15DD774B01221A6029
:100E300011E00120FFF7BCFD0346002B0BD0724BE5
:100E40001B680133704A13606F4B1B68632B02DD14
:100E50006D4B01221A600020FFF7AAFD0346002B0C
:100E60000BD0684B02221A70684B1B68664A1360ED
:100E70000320FFF76FFFFFF7ABFE0220FFF798FD9F
:100E80000346002B00F0B5805F4B1B685F4A136080
:100E9000AFE0FFF70DFF0120FFF7A8FD0346002B91
:100EA0000CD05B4B1B680133594A1360584B1B68CD
:100EB000632B15DD564B01221A6011E00120FFF76C
:100EC00077FD0346002B0BD0514B1B680133504A72
:100ED00013604F4B1B68632B02DD4D4B01221A60E0
:100EE0000020FFF765FD0346002B0BD0454B032286
:100EF0001A70484B1B68464A13600420FFF72AFF0C
:100F0000FFF766FE0220FFF753FD0346002B72D069
:100F10003F4B1B683F4A13606DE0FFF7C9FE01209D
:100F2000FFF764FD0346002B0CD03B4B1B680133DD
:100F3000394A1360384B1B68632B15DD364B012291
:100F40001A6011E00120FFF733FD0346002B0BD0A0
:100F5000314B1B680133304A13602F4B1B68632BE6
:100F600002DD2D4B01221A600020FFF721FD034610
:100F7000002B1ED0294B1A68264B1B681A44234BA2
:100F80001B689A4209D11F4B00221A70234B1B6821
:100F9000214A1360FFF748FD0BE01A4B04221A7038
:100FA0001E4B1B681C4A13600020FFF7D3FEFFF79F
:100FB0000FFE0220FFF7FCFC0346002B1DD0164B52
:100FC0001B68164A136018E000F05AF90020FFF77A
:100FD000EFFC0346002B12D00A4B01221A700220AC
:100FE000FFF7B8FE00F07AF9FFF7F2FD07E000BF67
:100FF00006E000BF04E000BF02E000BF00E000BF69
:1010000000BF80BD5C00002014000020080000200C
:1010100018000020100000201C0000200C00002000
:1010200080B500AF00F048FD00F03AF800F0C0F8DD
:1010300000F072F8194801F09DFC3221002000F008
:101040009BFC4FF47A71012000F096FC32210220C3
:1010500000F092FC4FF4FA71032000F08DFC0023A5
:1010600000220121002000F00FFB002301220021BB
:10107000012000F009FB00F057FBFFF76FFB022097
:1010800000F0D4FC0346002B05D0FFF7C5FB32214E
:10109000022000F071FCFFF783FEF0E7CC00002097
:1010A00080B590B000AF07F1180328220021184640
:1010B00002F01CF83B1D00221A605A609A60DA6048
:1010C0001A610223BB610123BB621023FB62002370
:1010D0007B6307F11803184601F020F80346002B44
:1010E00001D000F0C7F80F237B600023BB60002312
:1010F000FB6000233B6100237B613B1D0021184600
:1011000001F08CFA0346002B01D000F0B3F800BFC9
:101110004037BD4680BD000080B586B000AF07F106
:10112000080300221A605A609A60DA603B46002287
:101130001A605A601D4B4FF080421A601B4B41F6FB
:101140003F725A60194B00229A60184B0922DA60EC
:10115000164B00221A61154B00229A61134801F0C8
:10116000B9FB0346002B01D000F084F84FF4805304
:10117000BB6007F1080319460C4801F04FFD034618
:10118000002B01D000F076F800233B6000237B6049
:101190003B461946054801F01BFF0346002B01D0D2
:1011A00000F068F800BF1837BD4680BDCC000020B5
:1011B00080B586B000AF07F1080300221A605A60BC
:1011C0009A60DA60284B9B69274A43F004039361D5
:1011D000254B9B6903F004037B607B68224B9B6972
:1011E000214A43F0080393611F4B9B6903F00803F6
:1011F0003B603B6800227E211C4800F05EFF00221D
:1012000040F2FF711A4800F058FF7E23BB600123B3
:10121000FB6000233B6102237B6107F10803194651
:10122000124800F0B9FD4FF46073BB600023FB600F
:1012300001233B6107F1080319460C4800F0ACFD9F
:1012400040F2FF73BB600123FB6000233B6102237C
:101250007B6107F108031946054800F09DFD00BFBA
:101260001837BD4680BD00BF001002400008014095
:10127000000C014080B400AF72B600BFFEE7000072
:1012800080B500AF134B01221A60012201211248E0
:1012900000F013FF012202210F4800F00EFF01228F
:1012A00004210D4800F009FF012208210A4800F03E
:1012B00004FF01221021084800F0FFFE0122202136
:1012C000054800F0FAFE01224021034800F0F5FE37
:1012D00000BF80BD64000020000C014080B400AF5E
:1012E000034B00221A6000BFBD4680BC704700BFA0
:1012F0006400002080B582B000AF78607B68092B65
:1013000000F2808101A252F823F000BF35130008DB
:101310007D130008C51300080D14000855140008BB
:101320009D140008E51400082D1500087515000827
:10133000BD15000800220121B44800F0BEFE0022C5
:101340000221B24800F0B9FE00220421AF4800F0AB
:10135000B4FE00220821AD4800F0AFFE00221021AB
:10136000AA4800F0AAFE00222021A84800F0A5FE0D
:1013700001224021A54800F0A0FE43E10122012105
:10138000A24800F09AFE00220221A04800F095FE3B
:10139000002204219D4800F090FE012208219B4874
:1013A00000F08BFE01221021984800F086FE0122F9
:1013B0002021964800F081FE01224021934800F050
:1013C0007CFE1FE100220121904800F076FE002201
:1013D00002218E4800F071FE012204218B4800F0AA
:1013E0006CFE00220821894800F067FE00221021CF
:1013F000864800F062FE01222021844800F05DFE54
:1014000000224021814800F058FEFBE0002201212B
:101410007E4800F052FE002202217C4800F04DFE82
:1014200000220421794800F048FE00220821774874
:1014300000F043FE01221021744800F03EFE01221C
:101440002021724800F039FE002240216F4800F050
:1014500034FED7E0012201216C4800F02EFE00226C
:1014600002216A4800F029FE00220421674800F0AA
:1014700024FE01220821654800F01FFE01221021F0
:10148000624800F01AFE00222021604800F015FE9C
:10149000002240215D4800F010FEB3E0002201214F
:1014A0005A4800F00AFE01220221584800F005FEC9
:1014B00000220421554800F000FE00220821534874
:1014C00000F0FBFD01221021504800F0F6FD002243
:1014D00020214E4800F0F1FD002240214B4800F051
:1014E000ECFD8FE000220121484800F0E6FD0122DA
:1014F0000221464800F0E1FD00220421434800F0AB
:10150000DCFD00220821414800F0D7FD0022102117
:101510003E4800F0D2FD002220213C4800F0CDFDE5
:1015200000224021394800F0C8FD6BE00022012173
:10153000364800F0C2FD00220221344800F0BDFD13
:1015400000220421314800F0B8FD012208212F4873
:1015500000F0B3FD012210212C4800F0AEFD012265
:1015600020212A4800F0A9FD01224021274800F04F
:10157000A4FD47E000220121244800F09EFD002246
:101580000221224800F099FD002204211F4800F0AA
:1015900094FD002208211D4800F08FFD002210213B
:1015A0001A4800F08AFD00222021184800F085FD2D
:1015B00000224021154800F080FD23E00022012197
:1015C000124800F07AFD00220221104800F075FD5B
:1015D000002204210D4800F070FD002208210B4874
:1015E00000F06BFD01221021084800F066FD00228A
:1015F0002021064800F061FD00224021034800F050
:101600005CFD00BF00BF0837BD4680BD000C014037
:1016100080B483B000AF786039607B68184A82FB81
:1016200003129210DB17D31A164A13607968144B11
:1016300083FB01239A10CB17D21A13469B00134445
:101640005B00CA1A0F4B5A603B680D4A82FB0312BB
:101650009210DB17D31A0B4A93603968084B83FB4F
:1016600001239A10CB17D21A13469B0013445B0038
:10167000CA1A044BDA6000BF0C37BD4680BC704705
:10168000676666662000002080B584B000AFF86011
:10169000B9607A603B60FB68002B1ED1BB68DBB28F
:1016A000C3F10103DBB21A4608211E4800F005FD14
:1016B0007B68DBB2C3F10103DBB21A460221194891
:1016C00000F0FBFC3B68DBB2C3F10103DBB21A465E
:1016D0000421144800F0F1FC20E0FB68012B1DD12F
:1016E000BB68DBB2C3F10103DBB21A4640210D48EF
:1016F00000F0E3FC7B68DBB2C3F10103DBB21A4606
:101700001021084800F0D9FC3B68DBB2C3F10103AB
:10171000DBB21A462021034800F0CFFC00BF10378F
:10172000BD4680BD0008014080B500AF474B1B6837
:10173000002B40F08880464B1B68002B17D10022FD
:101740008021444800F0B9FC01224FF480714148E7
:1017500000F0B3FC01224FF400713E4800F0ADFCF4
:1017600001224FF480613B4800F0A7FC52E0384B67
:101770001B68012B17D101228021364800F09DFC07
:1017800000224FF48071334800F097FC01224FF49F
:101790000071304800F091FC01224FF480612D4827
:1017A00000F08BFC36E02A4B1B68022B17D101227C
:1017B0008021284800F081FC01224FF480712548E7
:1017C00000F07BFC00224FF40071224800F075FC11
:1017D00001224FF480611F4800F06FFC1AE01C4B9F
:1017E0001B68032B16D1012280211A4800F065FCEA
:1017F00001224FF48071174800F05FFC01224FF482
:101800000071144800F059FC00224FF48061114827
:1018100000F053FC0E4B1B680F4A52F82330184659
:10182000FFF768FD0A4B1B680133094A1360084B38
:101830001B685A4203F0030302F0030258BF5342ED
:10184000034A136000E000BF80BD00BF64000020B9
:1018500060000020000C01402000002080B485B012
:1018600000AF154B9B69144A43F001039361124B7F
:101870009B6903F00103BB60BB680F4BDB690E4A39
:1018800043F08053D3610C4BDB6903F080537B60E2
:101890007B680A4B5B68FB60FB6823F0E063FB60DE
:1018A000FB6843F08063FB60044AFB68536000BF41
:1018B0001437BD4680BC7047001002400000014054
:1018C00080B584B000AF78607B681B68B3F1804F4F
:1018D00013D10C4BDB690B4A43F00103D361094B75
:1018E000DB6903F00103FB60FB68002200211C2080
:1018F00000F01BFA1C2000F034FA00BF1037BD4680
:1019000080BD00BF0010024080B400AFFEE780B48D
:1019100000AFFEE780B400AFFEE780B400AFFEE7A3
:1019200080B400AFFEE780B400AF00BFBD4680BC0E
:10193000704780B400AF00BFBD4680BC704780B424
:1019400000AF00BFBD4680BC704780B500AF00F05F
:10195000F9F800BF80BD000080B500AF024801F07B
:1019600055F800BF80BD00BFCC00002080B400AFA0
:1019700000BFBD4680BC704780B582B000AF7860C4
:1019800039603868FEF750FE0DA3D3E90023FEF757
:10199000DFFB02460B4610461946FEF7BFFE024625
:1019A00009497B6841F83320074A7B68DB00134410
:1019B00000225A6000BF0837BD4680BDAFF30080EB
:1019C0009A9999999999B93F1401002080B483B0EC
:1019D00000AF00237B601DE0134A7B6852F8333070
:1019E000002B14D0104A7B6852F833305A1E0E492F
:1019F0007B6841F833200C4A7B6852F83330002B67
:101A000005D1094A7B68DB00134401225A607B68D8
:101A100001337B607B68042BDED900BF00BF0C372D
:101A2000BD4680BC704700BF1401002080B483B065
:101A300000AF7860074A7B68DB0013445B68012BCA
:101A400001D1012300E0002318460C37BD4680BCBD
:101A5000704700BF1401002080B582B000AF7860ED
:101A6000FFF7B4FF00BF0837BD4680BDFFF77EFF1C
:101A70000B480C490C4A002302E0D458C4500433EC
:101A8000C4188C42F9D3094A094C002301E01360C1
:101A90000432A242FBD301F005FBFFF7C1FA704705
:101AA000000000203C000020403100083C000020E5
:101AB00040010020FEE7000080B500AF084B1B6826
:101AC000074A43F010031360032000F023F90F20AE
:101AD00000F008F8FFF7C2FE0023184680BD00BFE3
:101AE0000020024080B582B000AF7860124B1A68C7
:101AF000124B1B7819464FF47A73B3FBF1F3B2FB28
:101B0000F3F3184600F03BF90346002B01D0012304
:101B10000EE07B680F2B0AD8002279684FF0FF3067
:101B200000F003F9064A7B681360002300E00123FC
:101B300018460837BD4680BD300000203800002020
:101B40003400002080B400AF054B1B781A46054BCB
:101B50001B681344034A136000BFBD4680BC704736
:101B6000380000203C01002080B400AF024B1B680D
:101B70001846BD4680BC70473C01002080B485B04B
:101B800000AF78607B6803F00703FB600C4BDB68F9
:101B9000BB60BA684FF6FF031340BB60FB681A02D4
:101BA000BB68134343F0BF6343F40033BB60044A94
:101BB000BB68D36000BF1437BD4680BC704700BF10
:101BC00000ED00E080B400AF044BDB681B0A03F0BB
:101BD00007031846BD4680BC704700BF00ED00E01B
:101BE00080B483B000AF0346FB7197F90730002B38
:101BF0000BDBFB7903F01F02064997F907305B09FD
:101C0000012000FA02F241F8232000BF0C37BD4644
:101C100080BC704700E100E080B483B000AF0346B1
:101C20003960FB7197F90730002B0ADB3B68DAB2A9
:101C30000C4997F907301201D2B20B4483F8002304
:101C40000AE03B68DAB20849FB7903F00F03043B72
:101C50001201D2B20B441A7600BF0C37BD4680BCCD
:101C6000704700BF00E100E000ED00E080B489B003
:101C700000AFF860B9607A60FB6803F00703FB61AE
:101C8000FB69C3F10703042B28BF0423BB61FB6975
:101C90000433062B02D9FB69033B00E000237B6180
:101CA0004FF0FF32BB6902FA03F3DA43BB681A4014
:101CB0007B699A404FF0FF317B6901FA03F3D94306
:101CC0007B680B40134318462437BD4680BC7047E1
:101CD00080B582B000AF78607B68013BB3F1807F54
:101CE00001D301230FE00A4A7B68013B53600F21B7
:101CF0004FF0FF30FFF790FF054B00229A60044B36
:101D000007221A60002318460837BD4680BD00BF71
:101D100010E000E080B582B000AF78607868FFF72F
:101D20002DFF00BF0837BD4680BD80B586B000AF2F
:101D30000346B9607A60FB7300237B61FFF742FFC3
:101D400078617A68B9687869FFF790FF024697F979
:101D50000F3011461846FFF75FFF00BF1837BD462A
:101D600080BD80B582B000AF0346FB7197F90730A4
:101D70001846FFF735FF00BF0837BD4680BD80B568
:101D800082B000AF78607868FFF7A2FF034618467C
:101D90000837BD4680BD000080B48BB000AF7860CE
:101DA000396000237B6200233B6248E101227B6AA9
:101DB00002FA03F3FB613B681B68FA691340BB61DD
:101DC000BA69FB699A4240F037813B685B68A34A75
:101DD00093425ED0A14A934275D8A14A934258D00B
:101DE0009F4A93426FD89F4A934252D09D4A934252
:101DF00069D89D4A93424CD09B4A934263D89B4AF0
:101E0000934246D0994A93425DD8122B2AD8122B7E
:101E100059D801A252F823F0931E00086D1E000845
:101E20007F1E0008C11E0008C71E0008C71E00084C
:101E3000C71E0008C71E0008C71E0008C71E0008EE
:101E4000C71E0008C71E0008C71E0008C71E0008DE
:101E5000C71E0008C71E0008C71E0008751E000820
:101E6000891E0008824A934213D02CE03B68DB684D
:101E70003B6229E03B68DB6804333B6224E03B685B
:101E8000DB6808333B621FE03B68DB680C333B6276
:101E90001AE03B689B68002B02D104233B6213E0ED
:101EA0003B689B68012B05D108233B627B68FA697C
:101EB0001A6109E008233B627B68FA695A6103E012
:101EC00000233B6200E000BFBB69FF2B01D87B68A9
:101ED00001E07B6804337B61BB69FF2B02D87B6A1E
:101EE0009B0002E07B6A083B9B003B617B691A68B0
:101EF0000F213B6901FA03F3DB431A40396A3B695E
:101F000001FA03F31A437B691A603B685B6803F0CC
:101F10008053002B00F09080564B9B69554A43F04C
:101F200001039361534B9B6903F00103BB60BB68E2
:101F3000514A7B6A9B08023352F82330FB607B6A6C
:101F400003F003039B000F2202FA03F3DB43FA685A
:101F50001340FB607B68494A93420DD07B68484A36
:101F6000934207D07B68474A934201D1022304E0A1
:101F7000032302E0012300E000237A6A02F0030257
:101F800092009340FA681343FB603B497B6A9B08CD
:101F90000233FA6841F823203B685B6803F480133E
:101FA000002B06D0384B9A683749BB6913438B60C6
:101FB00006E0354B9A68BB69DB43334913408B60BD
:101FC0003B685B6803F40013002B06D02E4BDA68E5
:101FD0002D49BB691343CB6006E02B4BDA68BB6924
:101FE000DB4329491340CB603B685B6803F4003353
:101FF000002B06D0244B5A682349BB6913434B601E
:1020000006E0214B5A68BB69DB431F4913404B6014
:102010003B685B6803F48033002B06D01A4B1A68C8
:102020001949BB6913430B6006E0174B1A68BB697B
:10203000DB43154913400B607B6A01337B623B68CD
:102040001A687B6A22FA03F3002B7FF4AFAE00BF5D
:1020500000BF2C37BD4680BC704700BF0000321067
:1020600000003110000022100000211000001210AA
:102070000000111000100240000001400008014063
:10208000000C0140001001400004014080B485B004
:1020900000AF78600B467B807B689A687B88134032
:1020A000002B02D00123FB7301E00023FB73FB7BB9
:1020B00018461437BD4680BC704780B483B000AF6B
:1020C00078600B467B8013467B707B78002B03D0B7
:1020D0007A887B681A6103E07B881A047B681A613E
:1020E00000BF0C37BD4680BC704780B485B000AFE0
:1020F00078600B467B807B68DB68FB607A88FB68D6
:1021000013401A04FB68D9437B880B401A437B6851
:102110001A6100BF1437BD4680BC704780B586B0D9
:1021200000AF78607B68002B01D101236CE27B68F3
:102130001B6803F00103002B00F08780924B5B6863
:1021400003F00C03042B0CD08F4B5B6803F00C03E3
:10215000082B12D18C4B5B6803F48033B3F5803FBE
:102160000BD1894B1B6803F40033002B6CD07B68C8
:102170005B68002B68D1012346E27B685B68B3F59E
:10218000803F06D1804B1B687F4A43F48033136045
:102190002EE07B685B68002B0CD17B4B1B687A4A76
:1021A00023F480331360784B1B68774A23F4802331
:1021B00013601DE07B685B68B3F5A02F0CD1724BF8
:1021C0001B68714A43F4802313606F4B1B686E4A8F
:1021D00043F4803313600BE06B4B1B686A4A23F4B3
:1021E00080331360684B1B68674A23F480231360B5
:1021F0007B685B68002B13D0FFF7B6FC386108E002
:10220000FFF7B2FC02463B69D31A642B01D90323C2
:10221000FAE15D4B1B6803F40033002BF0D014E0AF
:10222000FFF7A2FC386108E0FFF79EFC02463B691D
:10223000D31A642B01D90323E6E1534B1B6803F443
:102240000033002BF0D100E000BF7B681B6803F077
:102250000203002B63D04C4B5B6803F00C03002B94
:102260000BD0494B5B6803F00C03082B1CD1464B89
:102270005B6803F48033002B16D1434B1B6803F0DB
:102280000203002B05D07B681B69012B01D00123C1
:10229000BAE13D4B1B6823F0F8027B685B69DB0009
:1022A000394913430B603AE07B681B69002B20D04F
:1022B000364B01221A60FFF757FC386108E0FFF740
:1022C00053FC02463B69D31A022B01D903239BE13D
:1022D0002D4B1B6803F00203002BF0D02A4B1B6828
:1022E00023F0F8027B685B69DB00274913430B602E
:1022F00015E0264B00221A60FFF736FC386108E033
:10230000FFF732FC02463B69D31A022B01D90323A3
:102310007AE11D4B1B6803F00203002BF0D17B68B0
:102320001B6803F00803002B3AD07B689B69002BE5
:1023300019D0174B01221A60FFF716FC386108E02C
:10234000FFF712FC02463B69D31A022B01D9032383
:102350005AE10D4B5B6A03F00203002BF0D0012021
:1023600000F09AFA1CE00A4B00221A60FFF7FCFB0F
:1023700038610FE0FFF7F8FB02463B69D31A022BE6
:1023800008D9032340E100BF001002400000424290
:10239000800442429E4B5B6A03F00203002BE9D1AA
:1023A0007B681B6803F00403002B00F0A680002369
:1023B000FB75974BDB6903F08053002B0DD1944BD9
:1023C000DB69934A43F08053D361914BDB6903F09F
:1023D0008053BB60BB680123FB758E4B1B6803F405
:1023E0008073002B18D18B4B1B688A4A43F480738F
:1023F0001360FFF7B9FB386108E0FFF7B5FB024651
:102400003B69D31A642B01D90323FDE0814B1B6880
:1024100003F48073002BF0D07B68DB68012B06D1BE
:102420007B4B1B6A7A4A43F0010313622DE07B6801
:10243000DB68002B0CD1764B1B6A754A23F0010335
:102440001362734B1B6A724A23F0040313621CE08D
:102450007B68DB68052B0CD16D4B1B6A6C4A43F023
:10246000040313626A4B1B6A694A43F00103136257
:102470000BE0674B1B6A664A23F001031362644B4F
:102480001B6A634A23F0040313627B68DB68002B3A
:1024900015D0FFF769FB38610AE0FFF765FB0246DC
:1024A0003B69D31A41F28832934201D90323ABE04E
:1024B000574B1B6A03F00203002BEED014E0FFF72A
:1024C00053FB38610AE0FFF74FFB02463B69D31A22
:1024D00041F28832934201D9032395E04C4B1B6AA9
:1024E00003F00203002BEED1FB7D012B05D1484BFD
:1024F000DB69474A23F08053D3617B68DB69002B9B
:1025000000F08180424B5B6803F00C03082B61D024
:102510007B68DB69022B46D13F4B00221A60FFF734
:1025200023FB386108E0FFF71FFB02463B69D31A23
:10253000022B01D9032367E0354B1B6803F00073BE
:10254000002BF0D17B681B6AB3F5803F08D1304B7C
:102550005B6823F400327B689B682D4913434B6012
:102560002B4B5B6823F474127B68196A7B685B6A87
:102570000B43274913434B60274B01221A60FFF797
:10258000F3FA386108E0FFF7EFFA02463B69D31A25
:10259000022B01D9032337E01D4B1B6803F00073A6
:1025A000002BF0D02FE01C4B00221A60FFF7DCFA62
:1025B000386108E0FFF7D8FA02463B69D31A022BCC
:1025C00001D9032320E0124B1B6803F00073002B9A
:1025D000F0D118E07B68DB69012B01D1012313E006
:1025E0000B4B5B68FB60FB6803F480327B681B6A03
:1025F0009A4206D1FB6803F470127B685B6A9A42C8
:1026000001D0012300E0002318461837BD4680BDE5
:1026100000100240007000406000424280B584B06B
:1026200000AF786039607B68002B01D10123D0E0D6
:102630006A4B1B6803F007033A689A4210D9674B4C
:102640001B6823F0070265493B6813430B60634B2B
:102650001B6803F007033A689A4201D00123B8E0EF
:102660007B681B6803F00203002B20D07B681B688B
:1026700003F00403002B05D0594B5B68584A43F420
:10268000E06353607B681B6803F00803002B05D0F0
:10269000534B5B68524A43F460535360504B5B6842
:1026A00023F0F0027B689B684D4913434B607B68C5
:1026B0001B6803F00103002B40D07B685B68012B93
:1026C00007D1474B1B6803F40033002B15D10123BE
:1026D0007FE07B685B68022B07D1414B1B6803F0EE
:1026E0000073002B09D1012373E03D4B1B6803F0FD
:1026F0000203002B01D101236BE0394B5B6823F00F
:1027000003027B685B68364913434B60FFF72CFA82
:10271000F8600AE0FFF728FA0246FB68D31A41F294
:102720008832934201D9032353E02D4B5B6803F0B9
:102730000C027B685B689B009A42EBD1274B1B68BD
:1027400003F007033A689A4210D2244B1B6823F027
:10275000070222493B6813430B60204B1B6803F0C0
:1027600007033A689A4201D0012332E07B681B6874
:1027700003F00403002B08D0194B5B6823F4E062DC
:102780007B68DB68164913434B607B681B6803F06A
:102790000803002B09D0124B5B6823F460527B685E
:1027A0001B69DB000E4913434B6000F021F8024621
:1027B0000B4B5B681B0903F00F030A49CB5C22FA41
:1027C00003F3094A1360094B1B681846FFF78AF99F
:1027D000002318461037BD4680BD00BF00200240D0
:1027E00000100240143100083000002034000020A6
:1027F00080B487B000AF0023FB600023BB600023E0
:102800007B6100237B6000233B611E4B5B68FB60A8
:10281000FB6803F00C03042B02D0082B03D027E045
:10282000194B3B6127E0FB689B0C03F00F03174A31
:10283000D35C7B60FB6803F48033002B10D0114B1A
:102840005B685B0C03F00103114AD35CBB607B68DF
:102850000D4A02FB03F2BB68B2FBF3F37B6104E0B9
:102860007B680C4A02FB03F37B617B693B6102E0FE
:10287000054B3B6100BF3B6918461C37BD4680BC19
:10288000704700BF0010024000127A002431000897
:102890003431000800093D0080B485B000AF786095
:1028A0000A4B1B680A4AA2FB03235B0A7A6802FBF5
:1028B00003F3FB6000BFFB685A1EFA60002BF9D1DE
:1028C00000BF00BF1437BD4680BC704730000020F9
:1028D000D34D621080B582B000AF78607B68002B6A
:1028E00001D1012341E07B6893F83D30DBB2002B3E
:1028F00006D17B68002283F83C207868FEF7E0FF71
:102900007B68022283F83D207B681A687B68043369
:102910001946104600F06EFA7B68012283F84620C3
:102920007B68012283F83E207B68012283F83F20E8
:102930007B68012283F840207B68012283F84120D4
:102940007B68012283F842207B68012283F84320C0
:102950007B68012283F844207B68012283F84520AC
:102960007B68012283F83D20002318460837BD46C6
:1029700080BD000080B485B000AF78607B6893F8BC
:102980003D30DBB2012B01D0012335E07B68022210
:1029900083F83D207B681B68DA687B681B6842F01F
:1029A0000102DA607B681B68164A934209D07B6893
:1029B0001B68B3F1804F04D07B681B68124A9342B6
:1029C00011D17B681B689B6803F00703FB60FB6801
:1029D000062B10D07B681B681A687B681B6842F066
:1029E00001021A6007E07B681B681A687B681B6835
:1029F00042F001021A60002318461437BD4680BC1D
:102A0000704700BF002C01400004004080B582B038
:102A100000AF78607B681B681B6903F00203022B20
:102A200022D17B681B68DB6803F00203022B1BD1F9
:102A30007B681B686FF002021A617B6801221A77BB
:102A40007B681B689B6903F00303002B03D0786845
:102A500000F0B4F905E0786800F0A7F9786800F0B4
:102A6000B6F97B6800221A777B681B681B6903F044
:102A70000403042B22D17B681B68DB6803F004038A
:102A8000042B1BD17B681B686FF004021A617B6802
:102A900002221A777B681B689B6903F44073002B42
:102AA00003D0786800F08AF905E0786800F07DF9D5
:102AB000786800F08CF97B6800221A777B681B68C5
:102AC0001B6903F00803082B22D17B681B68DB68B5
:102AD00003F00803082B1BD17B681B686FF008020A
:102AE0001A617B6804221A777B681B68DB6903F034
:102AF0000303002B03D0786800F060F905E07868E4
:102B000000F053F9786800F062F97B6800221A77C8
:102B10007B681B681B6903F01003102B22D17B68B4
:102B20001B68DB6803F01003102B1BD17B681B684C
:102B30006FF010021A617B6808221A777B681B68A5
:102B4000DB6903F44073002B03D0786800F036F99A
:102B500005E0786800F029F9786800F038F97B68BA
:102B600000221A777B681B681B6903F00103012BA5
:102B70000ED17B681B68DB6803F00103012B07D1D2
:102B80007B681B686FF001021A617868FEF764FFCA
:102B90007B681B681B6903F08003802B0ED17B6868
:102BA0001B68DB6803F08003802B07D17B681B6800
:102BB0006FF080021A61786800F06BFA7B681B681E
:102BC0001B6903F04003402B0ED17B681B68DB6858
:102BD00003F04003402B07D17B681B686FF0400275
:102BE0001A61786800F0FCF87B681B681B6903F0C9
:102BF0002003202B0ED17B681B68DB6803F02003C9
:102C0000202B07D17B681B686FF020021A6178685F
:102C100000F036FA00BF0837BD4680BD80B584B0ED
:102C200000AF786039600023FB737B6893F83C3019
:102C3000012B01D10223B4E07B68012283F83C2000
:102C40007B68022283F83D207B681B689B68BB6021
:102C5000BB6823F07703BB60BB6823F47F43BB6092
:102C60007B681B68BA689A603B681B68B3F5005FB5
:102C70003ED0B3F5005F00F28780B3F5805F00F0CF
:102C80008680B3F5805F7FD8702B1AD0702B7BD8ED
:102C9000602B50D0602B77D8502B3CD0502B73D862
:102CA000402B58D0402B6FD8302B64D0302B6BD8B2
:102CB000202B60D0202B67D8002B5CD0102B5AD053
:102CC00062E07B6818683B6899683B685A683B68B3
:102CD000DB6800F05EF97B681B689B68BB60BB68C3
:102CE00043F07703BB607B681B68BA689A604FE06B
:102CF0007B6818683B6899683B685A683B68DB6882
:102D000000F047F97B681B689A687B681B6842F48F
:102D100080429A603CE07B6818683B6859683B6871
:102D2000DB681A4600F0BEF87B681B685021184625
:102D300000F015F92CE07B6818683B6859683B681F
:102D4000DB681A4600F0DCF87B681B6860211846D7
:102D500000F005F91CE07B6818683B6859683B681F
:102D6000DB681A4600F09EF87B681B684021184615
:102D700000F0F5F80CE07B681A683B681B681946A0
:102D8000104600F0ECF803E00123FB7300E000BF05
:102D90007B68012283F83D207B68002283F83C2079
:102DA000FB7B18461037BD4680BD80B483B000AFB2
:102DB000786000BF0C37BD4680BC704780B483B0DC
:102DC00000AF786000BF0C37BD4680BC704780B450
:102DD00083B000AF786000BF0C37BD4680BC704741
:102DE00080B483B000AF786000BF0C37BD4680BCB4
:102DF0007047000080B485B000AF786039607B68B0
:102E00001B68FB607B68254A934207D07B68B3F15F
:102E1000804F03D07B68224A934208D1FB6823F09D
:102E20007003FB603B685B68FA681343FB607B6878
:102E30001A4A934207D07B68B3F1804F03D07B6876
:102E4000174A934208D1FB6823F44073FB603B6848
:102E5000DB68FA681343FB60FB6823F080023B6881
:102E60005B691343FB607B68FA681A603B689A6889
:102E70007B68DA623B681A687B689A627B68074AFB
:102E8000934203D13B681A697B681A637B6801220D
:102E90005A6100BF1437BD4680BC7047002C01400A
:102EA0000004004080B487B000AFF860B9607A6079
:102EB000FB681B6A7B61FB681B6A23F00102FB68ED
:102EC0001A62FB689B693B613B6923F0F0033B613D
:102ED0007B681B013A6913433B617B6923F00A035A
:102EE0007B617A69BB6813437B61FB683A699A61CD
:102EF000FB687A691A6200BF1C37BD4680BC704708
:102F000080B487B000AFF860B9607A60FB681B6A74
:102F10007B61FB681B6A23F01002FB681A62FB6886
:102F20009B693B613B6923F470433B617B681B03F6
:102F30003A6913433B617B6923F0A0037B61BB6863
:102F40001B017A6913437B61FB683A699A61FB68EC
:102F50007A691A6200BF1C37BD4680BC704780B4D6
:102F600085B000AF786039607B689B68FB60FB6868
:102F700023F07003FB603A68FB68134343F00703D8
:102F8000FB607B68FA689A6000BF1437BD4680BC5E
:102F9000704780B487B000AFF860B9607A603B607A
:102FA000FB689B687B617B6923F47F437B613B68A3
:102FB0001A027B681A43BB6813437A6913437B6127
:102FC000FB687A699A6000BF1C37BD4680BC7047B9
:102FD00080B485B000AF786039607B6893F83C308E
:102FE000012B01D1022341E07B68012283F83C20C0
:102FF0007B68022283F83D207B681B685B68FB606E
:103000007B681B689B68BB60FB6823F07003FB60F8
:103010003B681B68FA681343FB607B681B68FA68AF
:103020005A607B681B68144A934209D07B681B680E
:10303000B3F1804F04D07B681B68104A93420CD1D7
:10304000BB6823F08003BB603B685B68BA681343CE
:10305000BB607B681B68BA689A607B68012283F852
:103060003D207B68002283F83C200023184614375B
:10307000BD4680BC704700BF002C014000040040EA
:1030800080B483B000AF786000BF0C37BD4680BC11
:10309000704780B483B000AF786000BF0C37BD4686
:1030A00080BC704770B500260C4D0D4C641BA410FD
:1030B000A64209D100F022F800260A4D0A4C641BF2
:1030C000A410A64205D170BD55F8043B98470136BF
:1030D000EEE755F8043B98470136F2E7383100082F
:1030E00038310008383100083C31000803460244FA
:1030F000934200D1704703F8011BF9E7F8B500BF10
:10310000F8BC08BC9E467047F8B500BFF8BC08BCC8
:043110009E46704720
:103114000000000000000000010203040607080983
:1031240002030405060708090A0B0C0D0E0F101004
:043134000102000094
:043138003501000855
:04313C001101000875
:103140000D0000000A0000000D0000000A00000051
:10315000030000000D000000030000000A00000052
:10316000010000000300000001000000000000005A
:0C3170000024F40010000000010000002A
:0400000508001A6D68
:00000001FF
